{
  "contractName": "baby_bank",
  "abi": [
    {
      "inputs": [],
      "stateMutability": "payable",
      "type": "constructor"
    },
    {
      "inputs": [],
      "name": "ReentrancyGuardReentrantCall",
      "type": "error"
    },
    {
      "inputs": [
        {
          "internalType": "address",
          "name": "",
          "type": "address"
        }
      ],
      "name": "balance",
      "outputs": [
        {
          "internalType": "uint256",
          "name": "",
          "type": "uint256"
        }
      ],
      "stateMutability": "view",
      "type": "function"
    },
    {
      "inputs": [
        {
          "internalType": "address",
          "name": "",
          "type": "address"
        }
      ],
      "name": "user",
      "outputs": [
        {
          "internalType": "bytes32",
          "name": "",
          "type": "bytes32"
        }
      ],
      "stateMutability": "view",
      "type": "function"
    },
    {
      "inputs": [
        {
          "internalType": "address",
          "name": "",
          "type": "address"
        }
      ],
      "name": "withdraw_time",
      "outputs": [
        {
          "internalType": "uint256",
          "name": "",
          "type": "uint256"
        }
      ],
      "stateMutability": "view",
      "type": "function"
    },
    {
      "inputs": [
        {
          "internalType": "string",
          "name": "_n",
          "type": "string"
        }
      ],
      "name": "signup",
      "outputs": [],
      "stateMutability": "nonpayable",
      "type": "function"
    },
    {
      "inputs": [],
      "name": "deposit",
      "outputs": [],
      "stateMutability": "payable",
      "type": "function"
    },
    {
      "inputs": [],
      "name": "withdraw",
      "outputs": [],
      "stateMutability": "nonpayable",
      "type": "function"
    }
  ],
  "bytecode": "0x608060405260015f8190555061092a806100185f395ff3fe608060405260043610610054575f3560e01c806330f3795c146100585780633ccfd60b14610094578063519c6377146100aa57806381e7e20e146100d2578063d0e30db01461010e578063e3d670d714610118575b5f80fd5b348015610063575f80fd5b5061007e600480360381019061007991906105c0565b610154565b60405161008b9190610603565b60405180910390f35b34801561009f575f80fd5b506100a8610169565b005b3480156100b5575f80fd5b506100d060048036038101906100cb919061067d565b610339565b005b3480156100dd575f80fd5b506100f860048036038101906100f391906105c0565b610450565b60405161010591906106e0565b60405180910390f35b610116610465565b005b348015610123575f80fd5b5061013e600480360381019061013991906105c0565b6104fc565b60405161014b9190610603565b60405180910390f35b6002602052805f5260405f205f915090505481565b610171610511565b60025f3373ffffffffffffffffffffffffffffffffffffffff1673ffffffffffffffffffffffffffffffffffffffff1681526020019081526020015f20544310156101ba575f80fd5b5f60015f3373ffffffffffffffffffffffffffffffffffffffff1673ffffffffffffffffffffffffffffffffffffffff1681526020019081526020015f205411610202575f80fd5b5f60015f3373ffffffffffffffffffffffffffffffffffffffff1673ffffffffffffffffffffffffffffffffffffffff1681526020019081526020015f205490505f60015f3373ffffffffffffffffffffffffffffffffffffffff1673ffffffffffffffffffffffffffffffffffffffff1681526020019081526020015f20819055505f3373ffffffffffffffffffffffffffffffffffffffff16826040516102aa90610726565b5f6040518083038185875af1925050503d805f81146102e4576040519150601f19603f3d011682016040523d82523d5f602084013e6102e9565b606091505b505090508061032d576040517f08c379a000000000000000000000000000000000000000000000000000000000815260040161032490610794565b60405180910390fd5b5050610337610555565b565b5f801b60035f3373ffffffffffffffffffffffffffffffffffffffff1673ffffffffffffffffffffffffffffffffffffffff1681526020019081526020015f20540361044c5781816040516020016103929291906107ee565b6040516020818303038152906040528051906020012060035f3373ffffffffffffffffffffffffffffffffffffffff1673ffffffffffffffffffffffffffffffffffffffff1681526020019081526020015f20819055507fffffffffffffffffffffffffffffffffffffffffffffffffffffffffffffffff60025f3373ffffffffffffffffffffffffffffffffffffffff1673ffffffffffffffffffffffffffffffffffffffff1681526020019081526020015f20819055505b5050565b6003602052805f5260405f205f915090505481565b5f34116104a7576040517f08c379a000000000000000000000000000000000000000000000000000000000815260040161049e90610876565b60405180910390fd5b3460015f3373ffffffffffffffffffffffffffffffffffffffff1673ffffffffffffffffffffffffffffffffffffffff1681526020019081526020015f205f8282546104f391906108c1565b92505081905550565b6001602052805f5260405f205f915090505481565b60025f540361054c576040517f3ee5aeb500000000000000000000000000000000000000000000000000000000815260040160405180910390fd5b60025f81905550565b60015f81905550565b5f80fd5b5f80fd5b5f73ffffffffffffffffffffffffffffffffffffffff82169050919050565b5f61058f82610566565b9050919050565b61059f81610585565b81146105a9575f80fd5b50565b5f813590506105ba81610596565b92915050565b5f602082840312156105d5576105d461055e565b5b5f6105e2848285016105ac565b91505092915050565b5f819050919050565b6105fd816105eb565b82525050565b5f6020820190506106165f8301846105f4565b92915050565b5f80fd5b5f80fd5b5f80fd5b5f8083601f84011261063d5761063c61061c565b5b8235905067ffffffffffffffff81111561065a57610659610620565b5b60208301915083600182028301111561067657610675610624565b5b9250929050565b5f80602083850312156106935761069261055e565b5b5f83013567ffffffffffffffff8111156106b0576106af610562565b5b6106bc85828601610628565b92509250509250929050565b5f819050919050565b6106da816106c8565b82525050565b5f6020820190506106f35f8301846106d1565b92915050565b5f81905092915050565b50565b5f6107115f836106f9565b915061071c82610703565b5f82019050919050565b5f61073082610706565b9150819050919050565b5f82825260208201905092915050565b7f5472616e73666572206661696c65642e000000000000000000000000000000005f82015250565b5f61077e60108361073a565b91506107898261074a565b602082019050919050565b5f6020820190508181035f8301526107ab81610772565b9050919050565b5f81905092915050565b828183375f83830152505050565b5f6107d583856107b2565b93506107e28385846107bc565b82840190509392505050565b5f6107fa8284866107ca565b91508190509392505050565b7f4465706f73697420616d6f756e74206d757374206265206772656174657220745f8201527f68616e207a65726f2e0000000000000000000000000000000000000000000000602082015250565b5f61086060298361073a565b915061086b82610806565b604082019050919050565b5f6020820190508181035f83015261088d81610854565b9050919050565b7f4e487b71000000000000000000000000000000000000000000000000000000005f52601160045260245ffd5b5f6108cb826105eb565b91506108d6836105eb565b92508282019050808211156108ee576108ed610894565b5b9291505056fea264697066735822122020514c8115f8ea6267b57aa72f8782299e423abe2707143125dac6d75efe8d9564736f6c634300081a0033",
  "immutableReferences": {},
  "source": "pragma solidity ^0.8.20;\n\nimport \"@openzeppelin/contracts/utils/ReentrancyGuard.sol\";\n\ncontract baby_bank is ReentrancyGuard {\n    mapping(address => uint256) public balance;\n    mapping(address => uint256) public withdraw_time;\n    mapping(address => bytes32) public user;\n\n    constructor() payable {}\n\n    function signup(string calldata _n) public {\n        if (user[msg.sender] != 0) {\n            return;\n        }\n        user[msg.sender] = keccak256(abi.encodePacked((_n)));\n        withdraw_time[msg.sender] = (2**256) - 1;\n    }\n\n    function deposit() public payable {\n        require(msg.value > 0, \"Deposit amount must be greater than zero.\");\n        balance[msg.sender] += msg.value;\n    }\n\n    function withdraw() public nonReentrant {\n        require(block.number >= withdraw_time[msg.sender]);\n        require(balance[msg.sender] > 0);\n        uint256 amountOfCallersBalance = balance[msg.sender]; // safely fetching the balance of the caller\n        balance[msg.sender] = 0;\n        \n        (bool success, ) = msg.sender.call{value: amountOfCallersBalance}(\"\"); // safely sending the balance to the caller\n        require(success, \"Transfer failed.\"); // if the transfer fails, revert the transaction\n    }\n}\n",
  "sourcePath": "/Users/giovannivignone/VSCodeProjects/sherlock-testing-repo/contracts/baby_bank.sol",
  "compiler": {
    "name": "solc",
    "version": "0.8.26+commit.8a97fa7a.Emscripten.clang"
  },
  "schemaVersion": "3.4.16",
  "updatedAt": "2024-08-03T07:24:00.044Z",
  "devdoc": {
    "errors": {
      "ReentrancyGuardReentrantCall()": [
        {
          "details": "Unauthorized reentrant call."
        }
      ]
    },
    "kind": "dev",
    "methods": {},
    "version": 1
  },
  "userdoc": {
    "kind": "user",
    "methods": {},
    "version": 1
  }
}